{
  "address": "0xe6d23b008177f6209b34278Aca26b59a28963738",
  "abi": [
    {
      "inputs": [
        {
          "internalType": "contract GnosisSafe",
          "name": "proxy",
          "type": "address"
        },
        {
          "internalType": "address",
          "name": "",
          "type": "address"
        },
        {
          "internalType": "bytes",
          "name": "",
          "type": "bytes"
        },
        {
          "internalType": "uint256",
          "name": "",
          "type": "uint256"
        }
      ],
      "name": "proxyCreated",
      "outputs": [],
      "stateMutability": "nonpayable",
      "type": "function"
    }
  ],
  "transactionHash": "0x35d492b5046cccd006e7554328896488230e60cad29681f2e7a1a115d0104be5",
  "args": [],
  "numDeployments": 3,
  "solcInputHash": "ac4403a93ccff67a58cf555ba9b07a5f",
  "bytecode": "0x608060405234801561001057600080fd5b50610375806100206000396000f3fe608060405234801561001057600080fd5b506004361061002b5760003560e01c80631e52b51814610030575b600080fd5b61004361003e3660046101b2565b610045565b005b604051306024820152610092908690819060009060440160408051601f198184030181529190526020810180516001600160e01b031663610b592560e01b17905260008080808080610099565b5050505050565b60408051306020820152600081830152600160f81b60608083019190915282518083039091018152608082019283905263353b090160e11b9092526001600160a01b038c1691636a76120291610103918d918d918d918d918d918d918d918d918d91608401610292565b6020604051808303816000875af1158015610122573d6000803e3d6000fd5b505050506040513d601f19601f82011682018060405250810190610146919061033f565b61018e5760405162461bcd60e51b815260206004820152601560248201527432bc32b1aa3930b739b0b1ba34b7b71032b93937b960591b604482015260640160405180910390fd5b50505050505050505050565b6001600160a01b03811681146101af57600080fd5b50565b6000806000806000608086880312156101ca57600080fd5b85356101d58161019a565b945060208601356101e58161019a565b9350604086013567ffffffffffffffff8082111561020257600080fd5b818801915088601f83011261021657600080fd5b81358181111561022557600080fd5b89602082850101111561023757600080fd5b96999598505060200195606001359392505050565b6000815180845260005b8181101561027257602081850181015186830182015201610256565b506000602082860101526020601f19601f83011685010191505092915050565b6001600160a01b038b168152602081018a9052610140604082018190526000906102be8382018c61024c565b905060028a106102de57634e487b7160e01b600052602160045260246000fd5b8960608401528860808401528760a08401528660c084015261030b60e08401876001600160a01b03169052565b6001600160a01b03851661010084015282810361012084015261032e818561024c565b9d9c50505050505050505050505050565b60006020828403121561035157600080fd5b8151801515811461036157600080fd5b939250505056fea164736f6c6343000812000a",
  "devdoc": {
    "kind": "dev",
    "methods": {},
    "version": 1
  },
  "userdoc": {
    "kind": "user",
    "methods": {},
    "version": 1
  },
  "storageLayout": {
    "storage": [],
    "types": null
  }
}