{
  "address": "0x84309C6CA01Ef5d797ea33ac884A3A3965412323",
  "abi": [
    {
      "inputs": [
        {
          "internalType": "address",
          "name": "_safeFactory",
          "type": "address"
        },
        {
          "internalType": "address",
          "name": "_singleton",
          "type": "address"
        }
      ],
      "stateMutability": "nonpayable",
      "type": "constructor"
    },
    {
      "inputs": [
        {
          "internalType": "string",
          "name": "_name",
          "type": "string"
        },
        {
          "internalType": "address[]",
          "name": "_owners",
          "type": "address[]"
        },
        {
          "internalType": "uint256",
          "name": "_threshold",
          "type": "uint256"
        },
        {
          "internalType": "uint256",
          "name": "saltNonce",
          "type": "uint256"
        },
        {
          "internalType": "address[]",
          "name": "_modules",
          "type": "address[]"
        }
      ],
      "name": "deploy",
      "outputs": [
        {
          "internalType": "contract GnosisSafe",
          "name": "proxy",
          "type": "address"
        }
      ],
      "stateMutability": "nonpayable",
      "type": "function"
    },
    {
      "inputs": [
        {
          "internalType": "address",
          "name": "",
          "type": "address"
        }
      ],
      "name": "name",
      "outputs": [
        {
          "internalType": "string",
          "name": "",
          "type": "string"
        }
      ],
      "stateMutability": "view",
      "type": "function"
    },
    {
      "inputs": [],
      "name": "safeFactory",
      "outputs": [
        {
          "internalType": "contract GnosisSafeProxyFactory",
          "name": "",
          "type": "address"
        }
      ],
      "stateMutability": "view",
      "type": "function"
    },
    {
      "inputs": [],
      "name": "singleton",
      "outputs": [
        {
          "internalType": "address",
          "name": "",
          "type": "address"
        }
      ],
      "stateMutability": "view",
      "type": "function"
    }
  ],
  "transactionHash": "0xe729337990ea589b6c1488d04863771d547ccd7a97697bc4be6fa3152da6f20c",
  "args": [
    "0xa6B71E26C5e0845f74c812102Ca7114b6a896AB2",
    "0x3E5c63644E683549055b9Be8653de26E0B4CD36E"
  ],
  "numDeployments": 1,
  "solcInputHash": "0355a618c86e8a7ef3a19cece3074381",
  "bytecode": "0x60803461013557601f6109d238819003918201601f19168301916001600160401b0383118484101761013957808492604094855283398101031261013557610052602061004b8361014d565b920161014d565b6001600160a01b039091169081156100f1576001600160a01b03169081156100a15760018060a01b03195f5416175f5560018060a01b0319600154161760015560405161087090816101628239f35b60405162461bcd60e51b815260206004820152602260248201527f496e76616c69642073696e676c65746f6e20616464726573732070726f766964604482015261195960f21b6064820152608490fd5b606460405162461bcd60e51b815260206004820152602060248201527f496e76616c696420666163746f727920616464726573732070726f76696465646044820152fd5b5f80fd5b634e487b7160e01b5f52604160045260245ffd5b51906001600160a01b03821682036101355756fe6080806040526004361015610012575f80fd5b5f3560e01c908163019848921461056357508063131e7e1c1461053c5780631ce28662146100745763b62654fb14610048575f80fd5b34610070575f366003190112610070576001546040516001600160a01b039091168152602090f35b5f80fd5b346100705760a03660031901126100705760043567ffffffffffffffff8111610070573660238201121561007057806004013567ffffffffffffffff81116100705736602482840101116100705760243567ffffffffffffffff8111610070576100e29036906004016106db565b929060843567ffffffffffffffff8111610070576101049036906004016106db565b949060018201958683116103ff5761013461011e8861070c565b9761012c604051998a610681565b80895261070c565b602088019790601f19013689375f5b848110610511575030610156858361075c565b5260405163b63e800d60e01b6020820152610100602482015290516101248201819052610144820198905f5b8181106104f257505050806101d9602061021b98999a60016044839601525f60648501525f8482039160231983016084870152525f60a48501525f60c48501525f60e48501525f6101048501528084520182610681565b5f8054600154604051631688f0b960e01b81526001600160a01b03918216600482015260606024820152998a94929091169284929091839160648301906106b7565b606435604483015203925af19485156104e7575f956104a3575b505f5b818110610413575050505f198101918183116103ff576102a5926102649261025f92610724565b610748565b6040519063f8dc5dd960e01b602083015260018060a01b0316602482015230604482015260443560648201526064815261029f608482610681565b82610770565b156103c5576001600160a01b03165f81815260026020526040902080546102cb90610649565b93601f8511610380575b602094505f601f821160011461031a57819293945f9261030c575b50508160011b915f199060031b1c19161790555b604051908152f35b6024925001013585806102f0565b601f19821694835f52865f20915f5b87811061036657508360019596971061034a575b505050811b019055610304565b01602401355f19600384901b60f8161c1916905585808061033d565b909288600181926024878701013581550194019101610329565b815f5260205f20601f820160051c810195602083106103bb575b601f0160051c01945b8581106103b057506102d5565b5f81556001016103a3565b909550859061039a565b60405162461bcd60e51b81526020600482015260126024820152712ab83230ba329037bbb732b91032b93937b960711b6044820152606490fd5b634e487b7160e01b5f52601160045260245ffd5b61045b61042461025f838587610724565b60405163610b592560e01b60208201526001600160a01b039091166024808301919091528152610455604482610681565b87610770565b1561046857600101610238565b60405162461bcd60e51b815260206004820152601360248201527222b730b136329036b7b23ab6329032b93937b960691b6044820152606490fd5b9094506020813d6020116104df575b816104bf60209383610681565b8101031261007057516001600160a01b0381168103610070579387610235565b3d91506104b2565b6040513d5f823e3d90fd5b82516001600160a01b03168b5260209a8b019a90920191600101610182565b8061052261025f600193888a610724565b61052c828561075c565b90838060a01b0316905201610143565b34610070575f366003190112610070575f546040516001600160a01b039091168152602090f35b34610070576020366003190112610070576004356001600160a01b03811690819003610070575f52600260205260405f205f908054906105a282610649565b808552916001811690811561062257506001146105e2575b6105de846105ca81860382610681565b6040519182916020835260208301906106b7565b0390f35b5f90815260208120939250905b808210610608575090915081016020016105ca826105ba565b9192600181602092548385880101520191019092916105ef565b60ff191660208087019190915292151560051b850190920192506105ca91508390506105ba565b90600182811c92168015610677575b602083101461066357565b634e487b7160e01b5f52602260045260245ffd5b91607f1691610658565b90601f8019910116810190811067ffffffffffffffff8211176106a357604052565b634e487b7160e01b5f52604160045260245ffd5b805180835260209291819084018484015e5f828201840152601f01601f1916010190565b9181601f840112156100705782359167ffffffffffffffff8311610070576020808501948460051b01011161007057565b67ffffffffffffffff81116106a35760051b60200190565b91908110156107345760051b0190565b634e487b7160e01b5f52603260045260245ffd5b356001600160a01b03811681036100705790565b80518210156107345760209160051b010190565b6108169160209160018060a01b03166107de5f604051933086860152816040860152600160f81b6060860152606085526107ab608086610681565b6040519687958694859363353b090160e11b855287600486015285602486015261014060448601526101448501906106b7565b908460648501528460848501528460a48501528460c48501528460e485015284610104850152600319848303016101248501526106b7565b03925af19081156104e7575f9161082b575090565b90506020813d60201161085b575b8161084660209383610681565b81010312610070575180151581036100705790565b3d915061083956fea164736f6c634300081c000a",
  "devdoc": {
    "kind": "dev",
    "methods": {},
    "version": 1
  },
  "userdoc": {
    "kind": "user",
    "methods": {},
    "version": 1
  },
  "storageLayout": {
    "storage": [
      {
        "astId": 151,
        "contract": "contracts/FortiusSafeFactory.sol:FortiusSafeFactory",
        "label": "safeFactory",
        "offset": 0,
        "slot": "0",
        "type": "t_contract(GnosisSafeProxyFactory)148"
      },
      {
        "astId": 153,
        "contract": "contracts/FortiusSafeFactory.sol:FortiusSafeFactory",
        "label": "singleton",
        "offset": 0,
        "slot": "1",
        "type": "t_address"
      },
      {
        "astId": 157,
        "contract": "contracts/FortiusSafeFactory.sol:FortiusSafeFactory",
        "label": "name",
        "offset": 0,
        "slot": "2",
        "type": "t_mapping(t_address,t_string_storage)"
      }
    ],
    "types": {
      "t_address": {
        "encoding": "inplace",
        "label": "address",
        "numberOfBytes": "20"
      },
      "t_contract(GnosisSafeProxyFactory)148": {
        "encoding": "inplace",
        "label": "contract GnosisSafeProxyFactory",
        "numberOfBytes": "20"
      },
      "t_mapping(t_address,t_string_storage)": {
        "encoding": "mapping",
        "key": "t_address",
        "label": "mapping(address => string)",
        "numberOfBytes": "32",
        "value": "t_string_storage"
      },
      "t_string_storage": {
        "encoding": "bytes",
        "label": "string",
        "numberOfBytes": "32"
      }
    }
  }
}