{
  "address": "0x477ac7Ad60f0125073520992f46abD9128EE9D39",
  "abi": [
    {
      "anonymous": false,
      "inputs": [
        {
          "indexed": true,
          "internalType": "bytes32",
          "name": "id",
          "type": "bytes32"
        },
        {
          "indexed": true,
          "internalType": "address",
          "name": "safe",
          "type": "address"
        }
      ],
      "name": "TransferCancelled",
      "type": "event"
    },
    {
      "anonymous": false,
      "inputs": [
        {
          "indexed": true,
          "internalType": "bytes32",
          "name": "id",
          "type": "bytes32"
        },
        {
          "indexed": true,
          "internalType": "address",
          "name": "safe",
          "type": "address"
        }
      ],
      "name": "TransferExecuted",
      "type": "event"
    },
    {
      "anonymous": false,
      "inputs": [
        {
          "indexed": true,
          "internalType": "bytes32",
          "name": "id",
          "type": "bytes32"
        },
        {
          "indexed": true,
          "internalType": "address",
          "name": "safe",
          "type": "address"
        },
        {
          "indexed": false,
          "internalType": "uint256",
          "name": "timestamp",
          "type": "uint256"
        }
      ],
      "name": "TransferScheduled",
      "type": "event"
    },
    {
      "inputs": [],
      "name": "NAME",
      "outputs": [
        {
          "internalType": "string",
          "name": "",
          "type": "string"
        }
      ],
      "stateMutability": "view",
      "type": "function"
    },
    {
      "inputs": [],
      "name": "VERSION",
      "outputs": [
        {
          "internalType": "string",
          "name": "",
          "type": "string"
        }
      ],
      "stateMutability": "view",
      "type": "function"
    },
    {
      "inputs": [
        {
          "internalType": "bytes32",
          "name": "id",
          "type": "bytes32"
        }
      ],
      "name": "cancel",
      "outputs": [],
      "stateMutability": "nonpayable",
      "type": "function"
    },
    {
      "inputs": [
        {
          "internalType": "address",
          "name": "safe",
          "type": "address"
        },
        {
          "internalType": "bytes32",
          "name": "id",
          "type": "bytes32"
        }
      ],
      "name": "execute",
      "outputs": [],
      "stateMutability": "nonpayable",
      "type": "function"
    },
    {
      "inputs": [
        {
          "internalType": "address",
          "name": "safe",
          "type": "address"
        },
        {
          "internalType": "address",
          "name": "token",
          "type": "address"
        },
        {
          "internalType": "address[]",
          "name": "recipients",
          "type": "address[]"
        },
        {
          "internalType": "uint256[]",
          "name": "values",
          "type": "uint256[]"
        },
        {
          "internalType": "uint256",
          "name": "timestamp",
          "type": "uint256"
        },
        {
          "internalType": "bool",
          "name": "escrow",
          "type": "bool"
        },
        {
          "internalType": "bool",
          "name": "cancellable",
          "type": "bool"
        },
        {
          "internalType": "bytes32",
          "name": "salt",
          "type": "bytes32"
        }
      ],
      "name": "hashOperation",
      "outputs": [
        {
          "internalType": "bytes32",
          "name": "",
          "type": "bytes32"
        }
      ],
      "stateMutability": "pure",
      "type": "function"
    },
    {
      "inputs": [
        {
          "internalType": "address",
          "name": "token",
          "type": "address"
        },
        {
          "internalType": "address[]",
          "name": "recipients",
          "type": "address[]"
        },
        {
          "internalType": "uint256[]",
          "name": "values",
          "type": "uint256[]"
        },
        {
          "internalType": "uint256",
          "name": "timestamp",
          "type": "uint256"
        },
        {
          "internalType": "bool",
          "name": "escrow",
          "type": "bool"
        },
        {
          "internalType": "bool",
          "name": "cancellable",
          "type": "bool"
        },
        {
          "internalType": "bytes32",
          "name": "salt",
          "type": "bytes32"
        }
      ],
      "name": "schedule",
      "outputs": [],
      "stateMutability": "nonpayable",
      "type": "function"
    },
    {
      "stateMutability": "payable",
      "type": "receive"
    }
  ],
  "transactionHash": "0x9308df444ee7b99c8a9c7554b27260b90fbb409624c625314d0326d44a42104f",
  "args": [],
  "numDeployments": 1,
  "solcInputHash": "0355a618c86e8a7ef3a19cece3074381",
  "bytecode": "0x60808060405234601557610fd3908161001a8239f35b5f80fdfe608080604052600436101561001c575b50361561001a575f80fd5b005b5f3560e01c9081636673bff6146105fa575080639edd8c741461037f578063a3f4df7e1461032e578063c4d252f51461015e578063def50d27146100b95763ffa1ad741461006a575f61000f565b346100b5575f3660031901126100b5576100b160405161008b604082610a32565b6005815264302e312e3160d81b6020820152604051918291602083526020830190610a54565b0390f35b5f80fd5b346100b5576101003660031901126100b5576100d36109c8565b602435906001600160a01b03821682036100b55760443567ffffffffffffffff81116100b5576101079036906004016109f2565b92909160643567ffffffffffffffff81116100b55761012a9036906004016109f2565b9091610134610a23565b9160c4359384151585036100b5576020976101569760e4359760843595610c24565b604051908152f35b346100b55760203660031901126100b557600435335f525f60205260405f20815f5260205260405f209061019760038301541515610b0d565b600482018054906101ae60ff8360101c1615610b4a565b6101be60ff8360181c1615610b86565b60ff8260081c16156102f25760ff9233907f1ed784ea0b4551753ccb1bbf1711421d8a07aff605d39bb9d770c25943aea4855f80a363ff00000019821663010000001790551661020a57005b5f5f91600281019283545b8082106102cb575050545f92506001600160a01b03168061025b575081808092818115610252575b3390f11561024757005b6040513d5f823e3d90fd5b506108fc61023d565b60405163a9059cbb60e01b81523360048201526024810192909252909160209183916044918391905af1908115610247575f9161029c575b5061001a575f80fd5b6102be915060203d6020116102c4575b6102b68183610a32565b810190610beb565b81610293565b503d6102ac565b90926102ea6001916102dd8688610bc2565b90549060031b1c90610c03565b930190610215565b60405162461bcd60e51b81526020600482015260146024820152734974656d206e6f742063616e63656c6c61626c6560601b6044820152606490fd5b346100b5575f3660031901126100b5576100b160405161034f604082610a32565b600f81526e54696d656c6f636b204d6f64756c6560881b6020820152604051918291602083526020830190610a54565b346100b55760403660031901126100b5576103986109c8565b6001600160a01b03165f81815260208181526040808320602435808552925290912060038101549091906103cd811515610b0d565b60048301908154906103e560ff8360101c1615610b4a565b6103f560ff8360181c1615610b86565b42106105c95760ff916040519333907f9dc31a4ea4a02e674abbe06620f541360e032c6c662c006e8a73b6cc082fc8ec5f80a362ff000019821662010000179055161561056b575b5080549091506001600160a01b0316806104b6575060018101906002015f5b825481101561001a575f8080806104738588610bc2565b905460039190911b1c6001600160a01b031661048f8688610bc2565b90549060031b1c908282156104ad575bf1156102475760010161045c565b506108fc61049f565b60028201916001015f5b815481101561001a5761052b60206104d88385610bc2565b905460039190911b1c6001600160a01b03166104f48488610bc2565b905460405163a9059cbb60e01b81526001600160a01b03909316600484015260039190911b1c602482015291829081906044820190565b03815f885af1908115610247575f9161054d575b50156100b5576001016104c0565b610565915060203d81116102c4576102b68183610a32565b8561053f565b60018060a01b038254166002830193845480845260208401955f5260205f20905f5b8181106105b3575050506105a7836105ac95960384610a32565b610cef565b808261043d565b825488526020909701966001928301920161058d565b60405162461bcd60e51b8152602060048201526009602482015268546f6f206561726c7960b81b6044820152606490fd5b346100b55760e03660031901126100b5576106136109c8565b60243567ffffffffffffffff81116100b5576106339036906004016109f2565b909260443567ffffffffffffffff81116100b5576106559036906004016109f2565b93906064359060843595861515978888036100b557610672610a23565b9542851115610992575081870361095b5761069760c435878a8786888d888d33610c24565b97335f525f60205260405f20895f52602052600360405f20015461092757604051858152897fc83cfb0af049967145bc802625240ef0f62d7d3e537511da281c4d06c36b022260203393a361090d575b60405194610100860186811067ffffffffffffffff8211176108c4576040526001600160a01b0316855261071a87610a78565b966107286040519889610a32565b808852602088019060051b8201913683116100b557905b8282106108f5575050509061075c91602085019687523691610a90565b60408301908152606083019182526080830196875260a08301931515845260c08301945f865260e08401965f8852335f525f60205260405f20905f5260205260405f209360018060a01b039051166bffffffffffffffffffffffff60a01b8554161784556001840190519081519167ffffffffffffffff83116108c457600160401b83116108c4576020906107f684845481865585610adc565b01905f5260205f205f5b8381106108d857505050506002830190519081519167ffffffffffffffff83116108c457600160401b83116108c45760209061084184845481865585610adc565b01905f5260205f205f5b8381106108b057505091516003840155505093516004909401805491519251935163ffffffff1990921660ff951515959095169490941791151560081b61ff00169190911791151560101b62ff0000169190911790151560181b63ff00000016179055005b60019060208451940193818401550161084b565b634e487b7160e01b5f52604160045260245ffd5b82516001600160a01b031681830155602090920191600101610800565b60208091610902846109de565b81520191019061073f565b61092261091b368486610a90565b8633610cef565b6106e7565b60405162461bcd60e51b815260206004820152600c60248201526b125d195b48195e1a5cdd195960a21b6044820152606490fd5b60405162461bcd60e51b815260206004820152600f60248201526e098cadccee8d040dad2e6dac2e8c6d608b1b6044820152606490fd5b62461bcd60e51b81526020600482015260116024820152700496e76616c69642074696d657374616d7607c1b6044820152606490fd5b600435906001600160a01b03821682036100b557565b35906001600160a01b03821682036100b557565b9181601f840112156100b55782359167ffffffffffffffff83116100b5576020808501948460051b0101116100b557565b60a4359081151582036100b557565b90601f8019910116810190811067ffffffffffffffff8211176108c457604052565b805180835260209291819084018484015e5f828201840152601f01601f1916010190565b67ffffffffffffffff81116108c45760051b60200190565b929190610a9c81610a78565b93610aaa6040519586610a32565b602085838152019160051b81019283116100b557905b828210610acc57505050565b8135815260209182019101610ac0565b919091828210610aeb57505050565b5f5260205f2091820191015b818110610b02575050565b5f8155600101610af7565b15610b1457565b60405162461bcd60e51b815260206004820152600e60248201526d125d195b481b9bdd08199bdd5b9960921b6044820152606490fd5b15610b5157565b60405162461bcd60e51b815260206004820152600d60248201526c125d195b48195e1958dd5d1959609a1b6044820152606490fd5b15610b8d57565b60405162461bcd60e51b815260206004820152600d60248201526c125d195b4818d85b98d95b1959609a1b6044820152606490fd5b8054821015610bd7575f5260205f2001905f90565b634e487b7160e01b5f52603260045260245ffd5b908160209103126100b5575180151581036100b55790565b91908201809211610c1057565b634e487b7160e01b5f52601160045260245ffd5b604080516001600160a01b0392831660208201908152929093169083015261010060608301526101208201849052989097610140890193919290915f5b818110610cc957505050878303601f190160808901528483526001600160fb1b0385116100b557610cc396602096899660051b80968987013760a0870152151560c0860152151560e0850152610100840152010301601f198101835282610a32565b51902090565b909194602080600192838060a01b03610ce18a6109de565b168152019601929101610c61565b9091925f915f925b8551841015610d1e57610d1660019160208660051b8901015190610c03565b930192610cf7565b919450929091506001600160a01b031680610e04575060405163468721a760e01b815230600482015260248101829052608060448201525f60848201819052606482018190524793602091839160a49183916001600160a01b03165af1908115610247575f91610de5575b5015610da157610d9a904792610c03565b036100b557565b606460405162461bcd60e51b815260206004820152602060248201527f436f756c64206e6f742065786563757465206574686572207472616e736665726044820152fd5b610dfe915060203d6020116102c4576102b68183610a32565b5f610d89565b90604051926370a0823160e01b8452306004850152602084602481865afa938415610247575f94610f91575b5060405163a9059cbb60e01b602080830191909152306024830152604480830185905282525f929091610e999190610e69606482610a32565b60405194858094819363468721a760e01b83528a6004840152836024840152608060448401526084830190610a54565b6064820183905203926001600160a01b03165af1908115610247575f91610f72575b5015610f2e576020602492604051938480926370a0823160e01b82523060048301525afa918215610247575f92610ef8575b50610d9a9192610c03565b91506020823d602011610f26575b81610f1360209383610a32565b810103126100b557610d9a915191610eed565b3d9150610f06565b606460405162461bcd60e51b815260206004820152602060248201527f436f756c64206e6f74206578656375746520746f6b656e207472616e736665726044820152fd5b610f8b915060203d6020116102c4576102b68183610a32565b5f610ebb565b9093506020813d602011610fbe575b81610fad60209383610a32565b810103126100b55751926020610e30565b3d9150610fa056fea164736f6c634300081c000a",
  "devdoc": {
    "kind": "dev",
    "methods": {},
    "version": 1
  },
  "userdoc": {
    "kind": "user",
    "methods": {},
    "version": 1
  },
  "storageLayout": {
    "storage": [
      {
        "astId": 963,
        "contract": "contracts/TimelockModule.sol:TimelockModule",
        "label": "_scheduled",
        "offset": 0,
        "slot": "0",
        "type": "t_mapping(t_address,t_mapping(t_bytes32,t_struct(TransferItem)956_storage))"
      }
    ],
    "types": {
      "t_address": {
        "encoding": "inplace",
        "label": "address",
        "numberOfBytes": "20"
      },
      "t_array(t_address)dyn_storage": {
        "base": "t_address",
        "encoding": "dynamic_array",
        "label": "address[]",
        "numberOfBytes": "32"
      },
      "t_array(t_uint256)dyn_storage": {
        "base": "t_uint256",
        "encoding": "dynamic_array",
        "label": "uint256[]",
        "numberOfBytes": "32"
      },
      "t_bool": {
        "encoding": "inplace",
        "label": "bool",
        "numberOfBytes": "1"
      },
      "t_bytes32": {
        "encoding": "inplace",
        "label": "bytes32",
        "numberOfBytes": "32"
      },
      "t_mapping(t_address,t_mapping(t_bytes32,t_struct(TransferItem)956_storage))": {
        "encoding": "mapping",
        "key": "t_address",
        "label": "mapping(address => mapping(bytes32 => struct TimelockModule.TransferItem))",
        "numberOfBytes": "32",
        "value": "t_mapping(t_bytes32,t_struct(TransferItem)956_storage)"
      },
      "t_mapping(t_bytes32,t_struct(TransferItem)956_storage)": {
        "encoding": "mapping",
        "key": "t_bytes32",
        "label": "mapping(bytes32 => struct TimelockModule.TransferItem)",
        "numberOfBytes": "32",
        "value": "t_struct(TransferItem)956_storage"
      },
      "t_struct(TransferItem)956_storage": {
        "encoding": "inplace",
        "label": "struct TimelockModule.TransferItem",
        "members": [
          {
            "astId": 939,
            "contract": "contracts/TimelockModule.sol:TimelockModule",
            "label": "token",
            "offset": 0,
            "slot": "0",
            "type": "t_address"
          },
          {
            "astId": 942,
            "contract": "contracts/TimelockModule.sol:TimelockModule",
            "label": "recipients",
            "offset": 0,
            "slot": "1",
            "type": "t_array(t_address)dyn_storage"
          },
          {
            "astId": 945,
            "contract": "contracts/TimelockModule.sol:TimelockModule",
            "label": "values",
            "offset": 0,
            "slot": "2",
            "type": "t_array(t_uint256)dyn_storage"
          },
          {
            "astId": 947,
            "contract": "contracts/TimelockModule.sol:TimelockModule",
            "label": "timestamp",
            "offset": 0,
            "slot": "3",
            "type": "t_uint256"
          },
          {
            "astId": 949,
            "contract": "contracts/TimelockModule.sol:TimelockModule",
            "label": "escrow",
            "offset": 0,
            "slot": "4",
            "type": "t_bool"
          },
          {
            "astId": 951,
            "contract": "contracts/TimelockModule.sol:TimelockModule",
            "label": "cancellable",
            "offset": 1,
            "slot": "4",
            "type": "t_bool"
          },
          {
            "astId": 953,
            "contract": "contracts/TimelockModule.sol:TimelockModule",
            "label": "executed",
            "offset": 2,
            "slot": "4",
            "type": "t_bool"
          },
          {
            "astId": 955,
            "contract": "contracts/TimelockModule.sol:TimelockModule",
            "label": "canceled",
            "offset": 3,
            "slot": "4",
            "type": "t_bool"
          }
        ],
        "numberOfBytes": "160"
      },
      "t_uint256": {
        "encoding": "inplace",
        "label": "uint256",
        "numberOfBytes": "32"
      }
    }
  }
}